S01600006275696C642F6672646D6B6C34367A2E7331393B
S113000000600020C100000005090000070900008D
S113001000000000000000000000000000000000DC
S113002000000000000000000000000009090000BA
S113003000000000000000000B0900000D09000092
S11300401109000013090000150900001709000038
S11300500F090000190900001B0900001D09000018
S11300601F090000210900002309000025090000E0
S113007027090000290900002B0900002D090000B0
S11300802F09000031090000330900003509000080
S113009037090000390900003B0900003D09000050
S11300A03F09000041090000430900004509000020
S11300B047090000490900004B0900004D090000F0
S11300C00749084A084B9B1A05DD002408591051BA
S11300D004349C42FADB0548804705480047000089
S11300E0F40C0000C0E0FF1F28E1FF1FD104000052
S10700F059040000AB
S1130400FFFFFFFFFFFFFFFFFFFFFFFFFEFFFFFFF9
S113041010B5064C2378002B07D1054B002B02D0D6
S1130420044800E000BF0123237010BD28E1FF1F32
S113043000000000E80C0000044B10B5002B03D0B2
S11304400349044800E000BF10BDC046000000009E
S11304502CE1FF1FE80C0000164B002B00D1144BBD
S11304609D46402292029A1A924600218B460F46DC
S11304701348144A121A00F01BFC0F4B002B00D037
S113048098470E4B002B00D0984700200021040011
S11304900D000D48002802D00C4800E000BF00F019
S11304A0E3FB2000290000F021FA00F0C7FBC0465E
S11304B000000800006000200000000000000000B0
S11304C028E1FF1F44E1FF1F0000000000000000BE
S11304D088220020214B520110B5985080222049D7
S11304E092005C5822435A501E4A1F491F4C99508F
S11304F01F4B996C214099644021DA6C2240DA64E4
S11305001C4B5A78114024220A4380215A701A4AFB
S113051011709A221A70DA7861390A40DA7001226D
S11305201A7158710F3299791142FCD10C219A79C0
S11305300A40082AFBD10C2138325A719A790A40B0
S1130540082AFBD1383299791142FCD01A220C21A5
S11305501A709A790A400C2AFBD110BD007004402D
S1130560381000004410000000000110FFF8FFFEE6
S11305700090044000400640005006402449254AAB
S1130580254B885803438B5080228020234B120232
S113059019680A431A601A68214982431A600022C2
S11305A0CA610A628A62CA624A658A65CA651D4965
S11305B04A648A641C490A601C490A614A611C49EC
S11305C019601C495A609A6019611B495961C0211C
S11305D0090399611949D96119491A625A629A62DF
S11305E0DA62196311215A639A63DA631A645A64EA
S11305F099644918DA641A6559659A65DA651A685E
S113060010490A401A601A68104318607047C046BF
S11306100070044038100000003C08000030054021
S113062000A0044000B0044000C0044000D00440D6
S11306306384B000800D0E006001300000011000E2
S113064000008844FF7FFFFFFF220D4B10B51A7096
S11306500C4B773A1A700C4B223ADA7700230B4989
S11306600B700B490A700B4A13700F2803D804212E
S113067000F016F810BD084A1370084A1370F9E721
S113068045300540313005400830054028300540EC
S113069055300540463005402A3005402B30054092
S11306A010B5042903D90120FFF7CEFF10BD00289F
S11306B00CD10139604B49005A5C604CBB301219B3
S11306C059184B78D0771B19EE221CE001280CD165
S11306D000200139584B49005A5C584C12195918DA
S11306E04B78D0771B1966220DE002280DD1524BAE
S11306F0013949005A5C514C75301219D077CC221B
S113070059184B781B19DA77D0E7032807D1013938
S1130710494B49005A5C494C52301219D0E704281D
S113072007D10139444B49005A5C444CC830121972
S1130730D5E705280CD101393F4B49005A5C3F4CA1
S1130740D830121959184B78D0771B19AA22DAE736
S1130750062807D10139384B49005A5C374CF93027
S11307601219EFE7072807D10139334B49005A5CC6
S1130770324C00201219A3E7082807D101392E4B67
S113078049005A5C2D4CF730121999E7092807D112
S11307900139294B49005A5C284CC33012198FE7A0
S11307A00A280CD1244B013949005A5C5918234CAE
S11307B04B78E43012191B19D077D87776E70B28D9
S11307C00CD11D4B013949005A5C1C4C59184B780B
S11307D01219F430D0771B19222294E70C280CD17B
S11307E00139154B49005A5C144CAF301219591891
S11307F04B78D0771B19882285E70D2807D101395A
S11308000D4B49005A5C0D4C6A30121967E70E28EB
S113081007D10139084B49005A5C084CF1301219D0
S1130820E5E70F2800D041E70139034B49005A5C42
S1130830024CDF301219DAE7DC0C0000013005400D
S11308401C4B70B50400984203D91020FFF7FCFE3E
S113085070BDFA21890000F07BF885B2E8B201216D
S1130860FFF71EFF144864216843001900F0FAF8EA
S11308700221C0B2FFF714FF6421200000F068F8E1
S113088083B26420404258430A21001900F0EAF878
S11308900321C0B2FFF704FF0A21200000F058F83A
S11308A00A235B4258430019C0B20421FFF7F8FE43
S11308B0CEE7C0460F27000018FCFFFF002382B0DC
S11308C009490093009A8A4201D902B07047019302
S11308D0019A632A03D9009A01320092F2E7C046D2
S11308E0019A01320192F3E78713000010B5FFF774
S11308F045FE0024A0B2FFF7A3FF0134FFF7DEFF9B
S1130900F8E70000FEE7FEE7FEE7FEE7FEE7FEE7A6
S1130910FEE7FEE7FEE7FEE7FEE7FEE7FEE7FEE7AB
S1130920FEE7FEE7FEE7FEE7FEE7FEE7FEE7FEE79B
S1130930FEE7FEE7FEE7FEE7FEE7FEE7FEE7FEE78B
S1130940FEE7FEE7FEE7FEE7FEE7FEE7FEE7C0465A
S1130950002243088B4274D303098B425FD3030AFA
S11309608B4244D3030B8B4228D3030C8B420DD30D
S1130970FF22090212BA030C8B4202D3121209029B
S113098065D0030B8B4219D300E0090AC30B8B42D9
S113099001D3CB03C01A5241830B8B4201D38B0387
S11309A0C01A5241430B8B4201D34B03C01A52412C
S11309B0030B8B4201D30B03C01A5241C30A8B426F
S11309C001D3CB02C01A5241830A8B4201D38B025A
S11309D0C01A5241430A8B4201D34B02C01A5241FE
S11309E0030A8B4201D30B02C01A5241CDD2C30970
S11309F08B4201D3CB01C01A524183098B4201D3EC
S1130A008B01C01A524143098B4201D34B01C01AD6
S1130A10524103098B4201D30B01C01A5241C3084E
S1130A208B4201D3CB00C01A524183088B4201D3BD
S1130A308B00C01A524143088B4201D34B00C01AA9
S1130A405241411A00D20146524110467047FFE715
S1130A5001B5002000F0F0F802BDC0460029F7D02F
S1130A6076E7704703460B437FD4002243088B424A
S1130A7074D303098B425FD3030A8B4244D3030B21
S1130A808B4228D3030C8B420DD3FF22090212BAE6
S1130A90030C8B4202D31212090265D0030B8B4262
S1130AA019D300E0090AC30B8B4201D3CB03C01A4C
S1130AB05241830B8B4201D38B03C01A5241430B27
S1130AC08B4201D34B03C01A5241030B8B4201D317
S1130AD00B03C01A5241C30A8B4201D3CB02C01A82
S1130AE05241830A8B4201D38B02C01A5241430AFA
S1130AF08B4201D34B02C01A5241030A8B4201D3E9
S1130B000B02C01A5241CDD2C3098B4201D3CB018F
S1130B10C01A524183098B4201D38B01C01A52413E
S1130B2043098B4201D34B01C01A524103098B4242
S1130B3001D30B01C01A5241C3088B4201D3CB002D
S1130B40C01A524183088B4201D38B00C01A524110
S1130B5043088B4201D34B00C01A5241411A00D2C0
S1130B6001465241104670475DE0CA0F00D0494229
S1130B70031000D34042534000229C4603098B4299
S1130B802DD3030A8B4212D3FC22890112BA030A21
S1130B908B420CD3890192118B4208D389019211A3
S1130BA08B4204D389013AD0921100E08909C30928
S1130BB08B4201D3CB01C01A524183098B4201D32A
S1130BC08B01C01A524143098B4201D34B01C01A15
S1130BD0524103098B4201D30B01C01A5241C3088D
S1130BE08B4201D3CB00C01A524183088B4201D3FC
S1130BF08B00C01A5241D9D243088B4201D34B0017
S1130C00C01A5241411A00D20146634652415B1058
S1130C10104601D34042002B00D549427047634639
S1130C205B1000D3404201B5002000F005F802BD7E
S1130C300029F8D016E770477047C046084B10B536
S1130C400400002B02D0002100E000BF054B18680F
S1130C50836A002B00D09847200000F031F8C0468A
S1130C6000000000E40C000070B500260C4D0D4C93
S1130C70641BA410A64209D1002600F023F80A4DF3
S1130C800A4C641BA410A64205D170BDB300EB58F6
S1130C9098470136EEE7B300EB5898470136F2E780
S1130CA020E1FF1F20E1FF1F20E1FF1F24E1FF1FC0
S1130CB003001218934200D1704719700133F9E709
S1130CC0FEE7C046F8B5C046F8BC08BC9E4670476F
S1130CD0F8B5C046F8BC08BC9E4670472511070805
S10F0CE035260A0BC0E0FF1F00000000D6
S10B0CEC6CF7FF7F010000001A
S1130CF400000000000000000000000000000000EC
S1130D0400000000000000000000000000000000DB
S1130D1400000000000000000000000000000000CB
S1130D2400000000000000000000000000000000BB
S1130D3400000000000000000000000000000000AB
S1130D44000000000000000000000000000000009B
S10B0D54390400001104000041
S90300C13B
